:100000000C946A000C9492000C9492000C94920050
:100010000C9492000C9492000C9492000C94920018
:100020000C9492000C9492000C9492000C94920008
:100030000C9492000C9492000C9492000C949200F8
:100040000C94C2130C9492000C9490130C946A13A9
:100050000C9492000C9492000C9492000C949200D8
:100060000C9492000C9492007C3C3E5E2B3D3F2F02
:100070005B5D3B2C2A225C00000000002300260070
:10008000290000000008000201000003040700002E
:1000900000000000000000000000250028002B00E8
:1000A00000000000240027002A00040404040404C3
:1000B0000404020202020202030303030303010217
:1000C00004081020408001020408102001020408E6
:1000D00010200C1411241FBECFEFD8E0DEBFCDBF1F
:1000E00012E0A0E0B1E0EAECFAE402C005900D9263
:1000F000A43FB107D9F727E0A4EFB2E001C01D92F9
:10010000A735B207E1F710E0CAE6D0E004C02197B6
:10011000FE010E943621C936D107C9F70E94811419
:100120000C9463250C94000090E0FC01E254FF4F16
:10013000249186559F4FFC018491882399F090E08B
:10014000880F991FFC01E056FF4FA591B491FC0167
:10015000EA56FF4F859194918FB7F894EC91E22B7A
:10016000EC938FBF0895CF93DF93FC01828193813D
:1001700090933B0780933A0784819581A681B7814C
:1001800080933C0790933D07A0933E07B0933F07B1
:1001900080859185A285B385809340079093410720
:1001A000A0934207B0934307DF011C96CF01499605
:1001B000C4E4D7E02D912993A817B907D9F7818D09
:1001C000928D909352078093510788E397E0DF91D7
:1001D000CF910895AF92BF92CF92DF92EF92FF92AC
:1001E0000F931F93CF93DF936C017B018B01040F5F
:1001F000151FEB015E01AE18BF08C017D10759F0FB
:100200006991D601ED91FC910190F081E02DC6013C
:100210000995892B79F7C501DF91CF911F910F9136
:10022000FF90EF90DF90CF90BF90AF900895FC01CA
:10023000538D448D252F30E0842F90E0821B930B4B
:10024000541710F0CF96089501970895FC01918DF1
:10025000828D981761F0A28DAE0FBF2FB11D5D96F4
:100260008C91928D9F5F9F73928F90E008958FEF96
:100270009FEF0895FC01918D828D981731F0828D4A
:10028000E80FF11D858D90E008958FEF9FEF0895A1
:10029000FC01918D228D892F90E0805C9F4F821B05
:1002A00091098F739927089588E396E00E94480189
:1002B00021E0892B09F420E0822F089580E090E06E
:1002C000892B29F00E94540181110C94000008959B
:1002D000FC01A48DA80FB92FB11DA35ABF4F2C91BB
:1002E000848D90E001968F739927848FA689B789B2
:1002F0002C93A089B1898C91837080648C93938DA9
:10030000848D981306C00288F389E02D80818F7D4B
:1003100080830895EF92FF920F931F93CF93DF9303
:10032000EC0181E0888F9B8D8C8D98131AC0E88931
:10033000F989808185FF15C09FB7F894EE89FF8900
:100340006083E889F98980818370806480839FBF9E
:1003500081E090E0DF91CF911F910F91FF90EF909E
:100360000895F62E0B8D10E00F5F1F4F0F731127AE
:10037000E02E8C8D8E110CC00FB607FCFACFE889E9
:10038000F989808185FFF5CFCE010E946801F1CF08
:10039000EB8DEC0FFD2FF11DE35AFF4FF0829FB75D
:1003A000F8940B8FEA89FB8980818062CFCFCF934D
:1003B000DF93EC01888D8823B9F0AA89BB89E8898D
:1003C000F9898C9185FD03C0808186FD0DC00FB633
:1003D00007FCF7CF8C9185FFF2CF808185FFEDCFB1
:1003E000CE010E946801E9CFDF91CF91089583305B
:1003F00081F028F4813099F08230A9F00895873097
:10040000A9F08830C9F08430B1F4809180008F7DEC
:1004100003C0809180008F7780938000089584B519
:100420008F7784BD089584B58F7DFBCF8091B00018
:100430008F778093B00008958091B0008F7DF9CFC1
:10044000CF93DF93282F30E0F901EE57FF4F8491CF
:10045000F901E254FF4FD491F901E655FF4FC491E1
:10046000CC23A1F081110E94F701EC2FF0E0EE0FF8
:10047000FF1FE858FF4FA591B491EC91ED2381E067
:1004800090E009F480E0DF91CF91089580E090E062
:10049000FACF1F93CF93DF93282F30E0F901EE5767
:1004A000FF4F8491F901E254FF4FD491F901E655D1
:1004B000FF4FC491CC23A9F0162F81110E94F701A0
:1004C000EC2FF0E0EE0FFF1FEA56FF4FA591B4911D
:1004D0008FB7F894EC91111108C0D095DE23DC930E
:1004E0008FBFDF91CF911F910895DE2BF8CF3FB7DB
:1004F000F8948091000390910103A0910203B091C0
:10050000030326B5A89B05C02F3F19F00196A11D36
:10051000B11D3FBFBA2FA92F982F8827BC01CD014D
:10052000620F711D811D911D42E0660F771F881FAC
:10053000991F4A95D1F708958F929F92AF92BF92DB
:10054000CF92DF92EF92FF924B015C010E94770203
:100550006B017C010E9477026C197D098E099F094D
:10056000683E734081059105A8F321E0821A910845
:10057000A108B10888EEC80E83E0D81EE11CF11C6A
:1005800081149104A104B10429F7FF90EF90DF904A
:10059000CF90BF90AF909F908F9008952FB7F89411
:1005A0006091FC027091FD028091FE029091FF0229
:1005B0002FBF089590E080E008958FB7F894809160
:1005C000F5028FBF089561E0FC0184810E94490219
:1005D0008091F40281111092F40208958EBD000002
:1005E0000DB407FEFDCF8EB508958FEF0C94EE028B
:1005F0000F931F93CF93DF93EC010E94CE028B01E8
:100600000E94F5028F3F69F00E94CE02601B710BC1
:100610006C177D07A8F380E0DF91CF911F910F91B8
:10062000089581E0F9CF8CBD9DBD0895CF93DF93F0
:10063000EC018091F402811109C081E08093F40201
:100640008091D5069091D6060E94130360E08C81BC
:10065000DF91CF910C9449028F929F92AF92BF92FB
:10066000FF920F931F93CF93DF93EC01F62E490176
:100670005A018E81882389F08F8198859C012F5F94
:100680003F4F38872F838230924018F40E94F50242
:10069000F3CFCE010E94E3021E82CE010E94160318
:1006A0008CE291E00E94F8028F2D80640E94EE029D
:1006B00008E110E0D501C401002E04C0B695A7954D
:1006C000979587950A94D2F70E94EE020850110977
:1006D000083F8FEF180771F785E9FF2021F028E028
:1006E00087E8F2128FEF0E94EE0210E00E94F502FE
:1006F0008A8787FF04C01F3F11F01F5FF7CFDF918C
:10070000CF911F910F91FF90BF90AF909F908F90CE
:100710000895AF92BF92CF92DF92EF92FF920F9324
:100720001F93CF93DF93EC016901C801820F931FE0
:100730008130924050F58E81882379F088819981AB
:10074000AA81BB8184179507A607B70731F48F816B
:100750009885C816D90608F042C0488359836A8331
:100760007B838B85833039F089E0440F551F661FEA
:10077000771F8A95D1F79A01AB0161E1CE010E9402
:100780002C03882389F083E08D83CE010E94E3024D
:1007900080E0DF91CF911F910F91FF90EF90DF905C
:1007A000CF90BF90AF9008950E94CE025B010E944F
:1007B000F5028A878F3F69F40E94CE026A197B098D
:1007C0006D327140A0F38FE08D83CE010E94E30271
:1007D000DCCF8E3F89F418861F8281E08E838F8163
:1007E00098858C159D0550F40E94F5028F8198859F
:1007F000019698878F83F3CF8DE0E6CF6701E00EF7
:10080000F11E0E94F502F60181936F01EE15FF05BE
:10081000C1F78F819885080F191F18870F83898565
:10082000882319F001151240A0F08E81882389F0E9
:100830008F8198859C012F5F3F4F38872F838230AF
:10084000924018F40E94F502F3CFCE010E94E30219
:100850001E8281E09ECFCF92DF92EF92FF920F93A4
:10086000CF93DF93EC01690182E1411551056105E8
:10087000710599F08B85833039F089E0440F551F5D
:10088000661F771F8A95D1F79A01AB0168E1CE0107
:100890000E942C03882319F084E08D832DC08EEFF5
:1008A0000E94EE0276018EEFD81AF70181917F0146
:1008B0000E94EE02EC14FD04C1F78FEF0E94EE02DD
:1008C0008FEF0E94EE020E94F5028A878F718530B9
:1008D00071F4011116C0CE010E94E30281E0DF91A4
:1008E000CF910F91FF90EF90DF90CF90089581E12D
:1008F0008D83CE010E94E302CE010E94E30280E0DC
:10090000EECF88E592E00E94F802811102C085E1F5
:10091000C4CF20E030E0A9016DE0CE010E942C039D
:10092000882311F084E1B9CF0E94F5028111FACF3A
:10093000D2CF0F934091F7025091F8026091F902E3
:100940007091FA02411551056105710599F0082F62
:1009500028E334E080913604909137040E942B0400
:10096000882349F01092F7021092F8021092F902CF
:100970001092FA0281E00F9108950F93CF93C82F40
:100980008091F602811105C0C1E08C2FCF910F91AB
:100990000895409100015091010160910201709110
:1009A00003010C2F28E334E0809136049091370442
:1009B0000E942B04811102C0C0E0E7CFCC2321F3B9
:1009C00081E00E9499048823B9F31092F602DDCFEA
:1009D0008F929F92AF92BF92EF92FF920F931F93CD
:1009E000CF934B015C01C42F8091000190910101D4
:1009F000A0910201B091030188159905AA05BB05D4
:100A000051F181E00E94BD0481110BC080E0CF91C3
:100A10001F910F91FF90EF90BF90AF909F908F909C
:100A2000089588E3E82E84E0F82E00E012E030E03C
:100A300020E0B501A40180913604909137040E9412
:100A40008903882319F38092000190920101A092FA
:100A50000201B09203014091F6024C2B4093F60242
:100A600081E0D5CFCF93DF93EC016E857F858889B8
:100A7000998941E00E94E804882351F08A8920E2A4
:100A8000829FC0011124885C9B4FDF91CF91089514
:100A900090E080E0FACF8F929F92AF92BF92CF9278
:100AA000DF92EF92FF92CF9327ED36E03093370439
:100AB00020933604882309F46DC040E060E070E0C4
:100AC000CB010E94E80481110BC080E0CF91FF9020
:100AD000EF90DF90CF90BF90AF909F908F90089550
:100AE0008091F6058F7789F7809102069091030631
:100AF000A0910406B091050684369105A105B105C3
:100B000020F3C090FE05D090FF05E0900006F09025
:100B10000106C114D104E104F104B9F240E0C701B7
:100B2000B6010E94E804882381F2809143049091E9
:100B300044048115924049F6A0914804AA2329F261
:100B400060914604709147046115710509F4BDCFA9
:100B500020914504222309F4B8CFA093F5062093F1
:100B6000E70690E080E030E0E1E0F0E0C82FAF0180
:100B7000082E02C0440F551F0A94E2F724173507C8
:100B800069F041E0480F01968930910579F740936B
:100B9000F0069BCFC12CD12C7601C0CF8093F006FC
:100BA00020914E0430914F0450E040E02115310572
:100BB00041F420915C0430915D0440915E045091B9
:100BC0005F042093E8063093E9064093EA065093C9
:100BD000EB0646015701860E971EA11CB11C8092A0
:100BE000F6069092F706A092F806B092F906E09108
:100BF0004904F0914A04F093FC06E093FB06B0E050
:100C00000E94CA20DC01CB01880D991DAA1DBB1DC5
:100C10008093FD069093FE06A093FF06B093000715
:100C200025E0EE0FFF1F2A95E1F7E150FE4FEF2F71
:100C3000FF27E6958E0F9F1FA11DB11D8093F10622
:100C40009093F206A093F306B093F40680904B04C1
:100C500090904C04B12CA12C8114910441F480900B
:100C6000580490905904A0905A04B0905B04C81A9C
:100C7000D90AEA0AFB0AC80CD91CEA1CFB1C04C0EE
:100C8000F694E794D794C794CA95D2F7C092EC062D
:100C9000D092ED06E092EE06F092EF0685EFC816D0
:100CA0008FE0D806E104F10428F48CE08093FA0682
:100CB00081E00CCF80E125EFC2162FEFD206E104D0
:100CC000F104A0F38091640490916504A0916604FE
:100CD000B09167048093FD069093FE06A093FF06F3
:100CE000B093000780E2E2CF4F925F926F927F92C3
:100CF0008F929F92AF92BF92CF92DF92EF92FF922C
:100D00000F931F93CF93DF93EC01423051056105A0
:100D1000710590F480E0DF91CF911F910F91FF90CA
:100D2000EF90DF90CF90BF90AF909F908F907F908B
:100D30006F905F904F90089589859A85AB85BC85AB
:100D40000196A11DB11D84179507A607B70710F3DB
:100D5000CB88DC88ED88FE888F89803109F042C01D
:100D6000BB27A72F962F852F480159012A013B0148
:100D7000C80ED91EEA1EFB1E809100019091010150
:100D8000A0910201B0910301C816D906EA06FB063C
:100D900099F58F898031C1F5B301A20155276627E6
:100DA0007727440F551F485C5B4FFA019182808280
:100DB0008091F60281608093F6028A89823080F009
:100DC0008D819E81AF81B8858C0D9D1DAE1DBF1D8F
:100DD0008093F7029093F802A093F902B093FA027D
:100DE00081E099CFDB01CA01E7E0B695A795979519
:100DF0008795EA95D1F7B8CF40E0C701B6010E94C8
:100E0000E8048111C6CF86CFB301A2014F775527E1
:100E100066277727440F551F440F551F485C5B4FCB
:100E2000FA0180829182A282B382C2CF8F929F9276
:100E3000AF92BF92CF92DF92EF92FF920F931F93E8
:100E4000CF93DF93FC0181859285A385B4850196BC
:100E5000A11DB11D84179507A607B70770F480E0A0
:100E6000DF91CF911F910F91FF90EF90DF90CF9086
:100E7000BF90AF909F908F90089583889488A588A5
:100E8000B6888789803189F5BB27A72F962F852FB4
:100E9000E9016A017B018F01BC01CD01680D791D5B
:100EA0008A1D9B1D8090000190900101A09002017D
:100EB000B090030186169706A806B90601F5F80159
:100EC0008789803111F5DD24EE24FF24F601EE0F31
:100ED000FF1FE85CFB4F80819181B0E0A0E0888338
:100EE0009983AA83BB8381E0BBCFDB01CA01C7E042
:100EF000B695A79597958795CA95D1F7C9CF40E044
:100F00000E94E8048111DBCFAACFE894C7F8DD2462
:100F1000EE24FF24F601EE0FFF1FEE0FFF1FE85C2B
:100F2000FB4F80819181A281B381BF70D8CF4F9256
:100F30005F926F927F92AF92BF92CF92DF92EF92C9
:100F4000FF920F931F93CF93DF9300D000D0CDB7C4
:100F5000DEB78C0149835A836B837C835901C12C92
:100F6000D12C7601412C82E0582E612C712C4981C4
:100F70005A816B817C819E012F5F3F4FC8010E9487
:100F80001607882339F1F8018585A301920104C071
:100F9000220F331F441F551F8A95D2F7DA01C9016A
:100FA000C80ED91EEA1EFB1E49815A816B817C81C5
:100FB0008789803111F188EF9FEFAFEFBFE04817CD
:100FC00059076A077B0798F2F501C082D182E28255
:100FD000F38281E00F900F900F900F90DF91CF91EF
:100FE0001F910F91FF90EF90DF90CF90BF90AF9047
:100FF0007F906F905F904F90089588EF9FEFA0E0F3
:10100000B0E0DDCFCF93DF93FC012581222321F0D7
:1010100080E0DF91CF910895EC018091FA06803154
:1010200059F582E08583178A108E118E128E809179
:10103000FB069091FC06B0E0A0E025E0880F991F28
:10104000AA1FBB1F2A95D1F7838B948BA58BB68BD8
:1010500083EE96E09C8F8B8F81E08C831E821F82B3
:10106000188619861A861B861C861D861E861F8674
:10107000188A198A1A8ACDCF803251F683E0858387
:101080004091FD065091FE066091FF0670910007A9
:10109000478B508F618F728F9F012D5E3F4F83EE84
:1010A00096E00E9497078111D3CFB2CF8F929F9283
:1010B000AF92BF92CF92DF92EF92FF920F931F9366
:1010C000CF93DF93EC018D8181110EC080E0DF9121
:1010D000CF911F910F91FF90EF90DF90CF90BF9035
:1010E000AF909F908F9008950B891C892D893E8920
:1010F000041715072607370748F34A015B018230BA
:1011000031F48A869B86AC86BD8681E0E0CF81146F
:101110009104A104B10449F41E821F821886198625
:101120001A861B861C861D86F0CF0A851B852C859A
:101130003D85EB8DFC8D858590E00996B901A80170
:101140004150510961097109082E04C076956795CF
:10115000579547950A94D2F775016401E1E0CE1ADC
:10116000D108E108F10804C0F694E794D794C79435
:101170008A95D2F7C416D506E606F70620F0012BAD
:10118000022B032B11F58F89988DA98DBA8D8E8333
:101190009F83A887B9878E010A5F1F4FC114D104AE
:1011A000E104F10409F4ADCF4E815F816885798552
:1011B00098018B8D9C8D0E94160791E0C91AD10869
:1011C000E108F1088111EACF81CFC41AD50AE60AF5
:1011D000F70AE1CF3F924F925F926F927F928F9288
:1011E0009F92AF92BF92CF92DF92EF92FF920F93B6
:1011F0001F93CF93DF93CDB7DEB72C970FB6F8943C
:10120000DEBF0FBECDBF5C01DC015B968D909C9074
:101210005C9716964D905D906D907C901997411457
:1012200051046104710409F468C0BFEF4B1A5B0AF2
:101230006B0A7B0A312CF40181859285A385B485E4
:101240009C01AD012F5F3F4F4F4F5F4F29873A877A
:101250004B875C87730162011D821E821F82188684
:10126000F40181859285A385B4852D813E814F81CE
:101270005885281739074A075B0708F056C0898543
:101280009A85AB85BC858C159D05AE05BF0550F4D0
:1012900082E0C82ED12CE12CF12C92E0492E512C69
:1012A000612C712C9E012F5F3F4FB701A601C40135
:1012B0000E9416078823C9F189819A81AB81BC817C
:1012C000892B8A2B8B2B09F1260137019FEF491AB5
:1012D000590A690A790A2D813E814F8158852F5F0D
:1012E0003F4F4F4F5F4F2D833E834F8358873FEFD4
:1012F000C31AD30AE30AF30AB3CFF4014080518042
:10130000628073803324339496CFC414D504E604EA
:10131000F70409F70FEF1FEF2FEF3FE0B701A6012A
:10132000C4010E947406811119C080E02C960FB68A
:10133000F894DEBF0FBECDBFDF91CF911F910F910B
:10134000FF90EF90DF90CF90BF90AF909F908F90E5
:101350007F906F905F904F903F900895D5011696C3
:101360004D915D916D917C911997411551056105E4
:10137000710539F097018601C4010E947406882323
:10138000A1F2D5011696CD92DD92ED92FC921997BD
:10139000332051F0D701C6010196A11DB11DF40102
:1013A00080839183A283B383F5018789908DA18D7A
:1013B000B28D892B8A2B8B2B39F48481C78AD08EEE
:1013C000E18EF28E80688483F5018481806284835B
:1013D00081E0ACCF1F93CF93DF93FC0125812223C3
:1013E00071F1162FEC01848187FF1EC0CF010E948E
:1013F0003205FC01892B19F18D81823040F48B89F3
:101400009C89AD89BE89848F958FA68FB78F8F8970
:10141000988D938F828F8F89988DA98DBA8DB58B7A
:10142000A48B8C818F778C83111103C08C818F7E6C
:101430008C83812FDF91CF911F910C94BD0480E0AC
:10144000DF91CF911F910895FF920F931F93CF9338
:10145000DF93EC018D81813041F090E080E0DF91FD
:10146000CF911F910F91FF9008958C8181FFF5CF4F
:1014700082FD1BC00091360410913704C8010E9400
:1014800016030E94F502F82EC8010E94E3028FEFB6
:10149000F812E3CF8C8185FF1BC060E0CE010E9473
:1014A000EA098C818F7D8C83D8CF4B895C896D89CB
:1014B0007E898A859B85AC85BD8584179507A6079F
:1014C000B707C1F2CE010E9456088111D3CFC5CF14
:1014D0004091F7025091F8026091F9027091FA027E
:1014E000452B462B472B21F080E00E949904B5CF75
:1014F00080618C832A853B85317080E092E0821B7D
:10150000930BADCFCF93DF93EC0161E00E94EA092A
:10151000882311F01D8281E0DF91CF9108952F92F1
:101520003F924F925F926F927F928F929F92AF9273
:10153000BF92CF92DF92EF92FF920F931F93CF93C0
:10154000DF9300D000D01F92CDB7DEB77C015B01E6
:10155000342E5D83DC0115968C911597813009F04E
:10156000CEC014962C9021FECAC022FCB4C0C32C5D
:10157000DD8022947FE027222094B22DB1702B2EA3
:10158000D7011A964D915D916D917C911D97C11473
:10159000D10409F428C15B968D919C915C97FC0164
:1015A00074807A948A019B0169E036952795179596
:1015B00007956A95D1F770228A011170711020C0C9
:1015C00001151105E9F416964D915D916D917C918F
:1015D0001997411551056105710509F099C0579694
:1015E0008D919D910D90BC91A02D0097A105B10505
:1015F00009F0B0C0C7010E94EA08882309F47FC03F
:1016000080E092E0801B910B46018C159D0508F44B
:101610004C01D7015B964D915C915C9716968D912C
:101620009D910D90BC91A02D0297A109B109FA01DD
:10163000258504C0880F991FAA1FBB1F2A95D2F7C2
:101640004685578560897189840F951FA61FB71F2E
:101650009C01AD01270D311D411D511D29013A018C
:10166000811432E0930609F07BC0809100019091D3
:101670000101A0910201B091030184159505A60511
:10168000B70559F48FEF9FEFDC0180930001909331
:101690000101A0930201B0930301022D9501B30152
:1016A000A20180913604909137040E942B04882374
:1016B00031F19EEFB91AC818D908F70182859385D0
:1016C000A485B585880D991DA11DB11D82879387BD
:1016D000A487B58755CFF7014389548965897689F1
:1016E00082859385A485B585481759076A077B07C6
:1016F00009F43DCFC7010E945608811138CF81E01F
:1017000090E0D70113969C938E93129780E007C0C8
:101710009E012F5F3F4F0E941607811102C090E08B
:1017200079C089819A81AB81BC81F701238D348D89
:10173000F901278948EF5FEF60E070E0203121F088
:1017400048EF5FEF6FEF7FE084179507A607B707B5
:1017500008F050CFF70186839783A087B18750CFD9
:101760000115110599F5D7011A964D915D916D916D
:101770007C911D9753968D919D910D90BC91A02DBC
:10178000481759076A077B0708F181E00E94BD04EA
:10179000882309F4B4CF4092000150920101609275
:1017A0000201709203018091F60281608093F6023B
:1017B000C801885C9B4FD5019C01280D391DFC0197
:1017C0002E173F0759F04D914193FACF41E0C301E5
:1017D000B2010E94E8048111EBCF91CF281B390B95
:1017E000A20EB31E68CFF70183899489A589B689B3
:1017F00084179507A607B70738F48481438B548B69
:10180000658B768B80688483F701848183FD1AC0A1
:10181000832D9D810F900F900F900F900F90DF916F
:10182000CF911F910F91FF90EF90DF90CF90BF90DD
:10183000AF909F908F907F906F905F904F903F9070
:101840002F90089561E0C7010E94EA09882309F4F6
:1018500056CFDECFCF93DF931F92CDB7DEB769832C
:1018600041E050E0BE016F5F7F4F0E948F0A0F90F2
:10187000DF91CF910895FC01DB0112968D919C912F
:1018800013979383828389E291E0918380831496F6
:101890008C911497848315968C9115978583169651
:1018A0004D915D916D917C91199746835783608727
:1018B00071871A964D915D916D917C911D9742872C
:1018C0005387648775871E964D915D916D917C91CC
:1018D000519746875787608B718B52968C915297A0
:1018E000828B53964D915D916D917C915697438B70
:1018F000548B658B768B57964D915D916D917C9154
:101900005A97478B508F618F728F5B968D919C9108
:10191000948F838F08950895FC01818D928D009797
:1019200019F061E00C94EA090895DC015996ED91F3
:10193000FC913097B9F083899489A589B68942854D
:10194000538564857585841B950BA60BB70B811594
:1019500020E89207A105B10538F08FEF9FE7A0E0DE
:10196000B0E0089590E080E00895DC0159968D91F3
:101970009C91009739F0DC01ED91FC910480F58198
:10198000E02D099490E080E00895CF93DF93EC017F
:10199000E98DFA8D309749F481E090E09B838A834A
:1019A00090E080E0DF91CF91089513821282898DBB
:1019B0009A8D0E948F0AE98DFA8D22813381232B23
:1019C00059F7F0CFCF93DF931F92CDB7DEB769837E
:1019D000DC01ED91FC910280F381E02D41E050E0CB
:1019E000BE016F5F7F4F09950F90DF91CF910895F2
:1019F0002F923F924F925F926F927F928F929F921F
:101A0000AF92BF92CF92DF92EF92FF920F931F930C
:101A1000CF93DF9300D01F92CDB7DEB7FC01858155
:101A2000811118C08FEF9FEF0F900F900F90DF91F3
:101A3000CF911F910F91FF90EF90DF90CF90BF90CB
:101A4000AF909F908F907F906F905F904F903F905E
:101A50002F900895848180FFE5CF4389548965895B
:101A6000768982859385A485B585312C212C4817EC
:101A700059076A077B0719F022242394312C6F0140
:101A80002101CE0101963C01DF011696BB83AA839A
:101A90004114510409F4C5C0F6014285538564859B
:101AA00075854A01F1E09F22D6015B968D919C914C
:101AB0005C978A019B01E9E0369527951795079574
:101AC000EA95D1F71596EC91E230E9F5FC01628DCB
:101AD000738D848D958D600F711F821F931FA12CB4
:101AE00022E0B22EA818B9084A145B0408F4520187
:101AF000F601248126FD04C0A114F2E0BF0671F4B2
:101B00000091000110910101209102013091030127
:101B1000061717072807390709F05EC040E00E9442
:101B2000E804882309F47ECFC401885C9B4FD3016D
:101B30009C012A0D3B1DFC012E173F0709F46CC0C8
:101B400041914D93F9CFDC011496BC90BA94B02228
:101B50008114910479F4B1100DC0452B462B472B0D
:101B600069F5F6018789908DA18DB28D8683978363
:101B7000A087B187D6015B96ED91FC915C97169694
:101B80006D917D918D919C91199762507109810998
:101B90009109258504C0660F771F881F991F2A9514
:101BA000D2F70685178520893189600F711F821F42
:101BB000931F6B0D711D811D911D91CFD60116963E
:101BC0004D915D916D917C9119972A813B810E9485
:101BD00016078111CFCF26CF730185019401AB0188
:101BE000BC0180913604909137040E9489038823B8
:101BF00009F418CF6A0C7B1CF60182859385A485B5
:101C0000B5858A0D9B1DA11DB11D82879387A48771
:101C1000B5874A185B083CCF281B390B620E731E30
:101C2000EBCF2A94232809F0FDCE898190E0FCCEE9
:101C3000FC01818D928D009711F00C94F80C8FEFC0
:101C40009FEF08950F931F93CF93DF93EC01898D3E
:101C50009A8D10E000E0009799F00E94F80C8C013A
:101C60000F3F100769F0898D9A8DFC0142855385DD
:101C70006485758541505109610971090E945608B2
:101C8000C801DF91CF911F910F91089580910D03AD
:101C900090910E03909331048093300480910B0354
:101CA00090910C0390932F0480932E04809109034C
:101CB00090910A0390932D0480932C048091070344
:101CC0009091080390932B0480932A04809105033C
:101CD0009091060390932904809328048091240313
:101CE000909125039093C1038093C00380912203B8
:101CF000909123039093DB038093DA0320912003D8
:101D0000309121033093F5032093F403909325043D
:101D10008093240408958091510790915207009771
:101D200061F00E94820A80915107909152070E94AF
:101D3000D821109252071092510708958F929F92C6
:101D4000AF92BF92CF92DF92EF92FF920F931F93C9
:101D5000CF93DF9300D000D0CDB7DEB7FC018581F3
:101D6000813091F080E00F900F900F900F90DF91F5
:101D7000CF911F910F91FF90EF90DF90CF90BF9088
:101D8000AF909F908F900895848181FFEBCF8389DE
:101D90009489A589B689892B8A2B8B2B09F45FC07E
:101DA0007F0140E050E0BA01CF010E94560888232D
:101DB000C9F2F701C38CD48C8788908CA18CB28C2B
:101DC00082E090E0A0E0B0E0F60180839183A283FE
:101DD000B3839E012F5F3F4FB501A401C6010E944E
:101DE0001607882309F4BECF00E010E09801B50182
:101DF000A401C6010E947406882309F4B3CF898028
:101E00009A80AB80BC80F6018789803119F188EF18
:101E10009FEFAFEFBFE088169906AA06BB06C8F28F
:101E2000F701178A108E118E128E138A148A158A62
:101E3000168A84818068848361E0C7010E94EA0970
:101E4000882309F48FCF40E050E0BA01C7010E9417
:101E5000560889CF88EF9FEFA0E0B0E0DCCF81E0AB
:101E600082CFCF92DF92EF92FF921F93CF93DF93B7
:101E7000EC0180E2689FF0011124E85CFB4F938540
:101E8000917161F0842F827449F080E0DF91CF91ED
:101E90001F91FF90EF90DF90CF900895142F6A8BE1
:101EA0008091000190910101A0910201B091030184
:101EB0008E879F87A88BB98BC488D588F12CE12C9D
:101EC0007601DD24CC24CF8AD88EE98EFA8E828DDD
:101ED000938DB0E0A0E0AC01BD014C295D296E29D5
:101EE0007F294F8B588F698F7A8F83858871B1F4E2
:101EF000848D958DA68DB78D8B8B9C8BAD8BBE8B7A
:101F000081E08D831F701C831E821F8218861986B4
:101F10001A861B861C861D8681E0B8CF803109F0A9
:101F2000B4CF9E012D5E3F4F8B8D9C8D0E949707F5
:101F3000882309F4AACF84E0E4CFCF93DF93EC01A8
:101F400060E08E810E94490261E08E810E94490218
:101F500060E08E810E9449028BE891E00197F1F7E1
:101F6000DF91CF910895CF92DF92EF92FF920F937E
:101F70001F93CF93DF936C017C0187E0E80EF11C87
:101F8000D0E0C0E0062F10E0B8010C2E02C075951D
:101F900067950A94E2F76170F70181917F010E94D1
:101FA00049022196C430D10579F7C601DF91CF915E
:101FB0001F910F91FF90EF90DF90CF900C949D0FA9
:101FC000CF92DF92EF92FF920F931F93CF93DF9305
:101FD000EC01F62E642F8C810E9449028D818F3F87
:101FE00019F060E00E9449020F2D10E08F8584FFF8
:101FF00025C06E0187E0C80ED11CF12CE12CB80180
:102000000E2C02C0759567950A94E2F76170F6018F
:1020100081916F010E944902FFEFEF1AFF0A88E0E9
:10202000E816F10461F7CE01DF91CF911F910F9176
:10203000FF90EF90DF90CF900C949D0FB80184E05B
:10204000759567958A95E1F7CE010E94B30F6F2DC4
:10205000CE01DF91CF911F910F91FF90EF90DF9014
:10206000CF900C94B30F40E0682F80E297E00C947F
:10207000E00F81E00E9433108BE39FE10197F1F7BD
:102080000895CF93DF93613029F090912F079860E6
:1020900090932F07609333071092340790E4909346
:1020A000350780933607805C80933707809124073B
:1020B0000E949400809125078F3F11F00E949400A8
:1020C000809126070E949400C0E2D7E09E01205232
:1020D000374080912F0784FD0AC084E090E021966C
:1020E000281739073CF48E810E949400EFCF88E0D6
:1020F00090E0F5CF8BE39DE00197F1F760E08091F0
:1021000024070E94490260E0809126070E9449024C
:10211000809125078F3F19F060E00E94490280916D
:102120002F0784FD34C063E080E297E00E94B30F84
:10213000CBE4D6E4CE010197F1F763E080E297E0CB
:102140000E94B30F2197F1F763E080E297E00E94CD
:10215000B30F83E592E00197F1F762E080E297E048
:102160000E94B30F80912F0780620E94331084E099
:10217000809330078CE00E9433100E94391082E077
:102180008093310786E0DF91CF910C943310806209
:102190000E9433108BE496E40197F1F780912F07AA
:1021A00080620E94331083E592E00197F1F78091FD
:1021B0002F0780620E943310D5CF90913307891783
:1021C00010F08FEF890FE82FF0E0E05EF84F848980
:1021D00080680C94331041E00E94E00F81E090E0B1
:1021E0000895FB0101900020E9F73197AF01461BEC
:1021F000570BDC01ED91FC910280F381E02D0994F5
:10220000CF93DF93BC0188E396E00E94F110EC01CC
:102210006FE471E088E396E00E94F1108C0F9D1F3F
:10222000DF91CF9108950C94F1103F924F925F92FD
:102230006F927F928F929F92AF92BF92CF92DF92D6
:10224000EF92FF920F931F93CF93DF93CDB7DEB73B
:102250002B970FB6F894DEBF0FBECDBF7C01FE01F9
:102260003196CE010C966F0130E231938E179F07A5
:10227000E1F7DA0130E087E09D91B92E992309F466
:102280003CC09E32F1F48A30C9F480E02B960FB640
:10229000F894DEBF0FBECDBFDF91CF911F910F919C
:1022A000FF90EF90DF90CF90BF90AF909F908F9076
:1022B0007F906F905F904F903F90089538E08AE054
:1022C000DBCFE8E6F0E04491442321F0319694130B
:1022D000FACFDBCF8317C8F24FED490F4E35A8F682
:1022E0004FE9490F4A3118F440EEB42EB90EF60109
:1022F000E30FF11DB0823F5FBFCF8981803229F2A9
:10230000322E8B01DB015B968D919C915C97F701DE
:10231000948F838F16961D921D921D921C92199771
:10232000FB011286138614861586F8018285938533
:10233000A485B5854389548965897689841795076D
:10234000A607B70708F04DC025E0B695A795979565
:1023500087952A95D1F7F82FFF70AF2ED8011596E3
:102360008C91823008F491CFC8010E94F80C97FD3F
:102370008CCFF80182859385A485B5854F96A11DE4
:10238000B11D82879387A487B587F0E2AF9EB00125
:102390001124685C7B4F6115710509F476CFDB0170
:1023A0008C91882341F0853E09F058C0BB2029F06C
:1023B000BB24B394BACFB1100EC0F701A28A8091AA
:1023C000000190910101A0910201B0910301868763
:1023D0009787A08BB18BDB018C918111E9CFBB2456
:1023E000B394832D8271823109F04FCFBB2009F461
:1023F00043C0C7010E943205009709F446CF20E28E
:10240000FC0111922A95E9F72BE0F601DC0101901D
:102410000D922A95E1F721E238E2DC0151963C93D6
:102420002E93509740E058E01F965C934E931E9772
:1024300053963C932E93529759963C932E935897CC
:1024400057965C934E93569781E00E94BD04882373
:1024500009F41BCF432DF70162890AC04BE050E01D
:10246000C6010E946122892B09F05FCF432D6A2D9E
:10247000C7010E94310F0ACFF8018581823009F42B
:1024800004CFC8010E94EA08882309F4FECED801CF
:102490005B96ED91FC915C9716968D909D90AD901A
:1024A000BC901997B2E08B1A9108A108B1088585F4
:1024B00004C0880C991CAA1CBB1C8A95D2F786857F
:1024C0009785A089B189880E991EAA1EBB1E84819A
:1024D00024013501480E511C611C711C481459041B
:1024E0006A047B0409F1E1E04E1A510861087108A1
:1024F00081E00E94BD04882309F4C7CEE8E3F4E03C
:10250000119288E396E08E179F07D1F74092000161
:102510005092010160920201709203018091F602D3
:1025200081608093F602DACFD8015B96ED91FC9141
:10253000258580E092E0A0E0B0E004C0880F991FFC
:10254000AA1FBB1F2A95D2F7F801438954896589D0
:102550007689840F951FA61FB71F838B948BA58B3D
:10256000B68BD70152961C9288E394E048CFEF9245
:10257000FF920F931F93CF93DF93EC017B018A01AE
:102580001B821A8288EE93E0A0E0B0E08C839D83EA
:10259000AE83BF8381E491E0998388838DE190E0ED
:1025A0000E943C219A8F898F009779F02DE1F701E5
:1025B000DC0101900D922A95E1F74CE050E0B80162
:1025C000CE010C960E947C22188EDF91CF911F9134
:1025D0000F91FF90EF900895CF92DF92FF920F93AB
:1025E0001F93CF93DF93CDB7DEB7C755D1090FB691
:1025F000F894DEBF0FBECDBF8C01F62E1C821B826D
:1026000089E2C82E81E0D82EDA82C9821E82CE01EC
:1026100001960E940208BE016F5F7F4FCE01CB96EC
:102620000E943B0C19A218A2DF8ECE8E1BA221960F
:102630008FAD2197811122C0F8011382128288EE9A
:1026400093E0A0E0B0E084839583A683B78381E420
:1026500091E091838083128E118E1486C801C95A2D
:10266000DF4F0FB6F894DEBF0FBECDBFDF91CF9125
:102670001F910F91FF90DF90CF9008952F2D42E58D
:1026800051E0BE01655C7F4FCE014E960E94151150
:10269000882391F2CE01CB960E94820A8F2D8670FC
:1026A000863041F449A95AA96BA97CA9CE014E965E
:1026B0000E945608BE01625E7F4FCE0101960E94C5
:1026C0003B0C42E551E0BE016F5F7F4FC8010E94A5
:1026D000B712C4CF1F920F920FB60F9211242F93EF
:1026E0003F934F935F936F937F938F939F93AF939A
:1026F000BF93EF93FF9388E396E00E946801FF91F8
:10270000EF91BF91AF919F918F917F916F915F9169
:102710004F913F912F910F900FBE0F901F901895E2
:102720001F920F920FB60F9211242F938F939F93A6
:10273000EF93FF93E0914806F09149068081E09184
:102740004E06F0914F0682FD1BC09081809151068C
:102750008F5F8F7320915206821741F0E0915106EE
:10276000F0E0E85CF94F958F80935106FF91EF916F
:102770009F918F912F910F900FBE0F901F901895E2
:102780008081F4CF1F920F920FB60F9211242F93D6
:102790003F938F939F93AF93BF938091FC0290914F
:1027A000FD02A091FE02B091FF023091FB0223E0F6
:1027B000230F2D3758F50196A11DB11D2093FB0263
:1027C0008093FC029093FD02A093FE02B093FF025F
:1027D0008091000390910103A0910203B091030343
:1027E0000196A11DB11D8093000390930103A09356
:1027F0000203B0930303BF91AF919F918F913F91DB
:102800002F910F900FBE0F901F90189526E8230F61
:102810000296A11DB11DD2CFE8E3F6E01382128229
:1028200088EE93E0A0E0B0E084839583A683B7832D
:1028300027E131E03183208325EC30E035872487A0
:1028400024EC30E03787268720EC30E0318B208B7A
:1028500021EC30E0338B228B22EC30E0358B248B63
:1028600026EC30E0378B268B118E128E138E148E51
:10287000E5EDF6E020E520831182E7EDF6E0158234
:1028800016821186138642E050E060E070E04487D3
:1028900055876687778713A215A614A629E231E02B
:1028A00033A722A717A6E8E3F7E0138212828483F6
:1028B0009583A683B78381E491E091838083128E10
:1028C000118E1486E0E2F7E01382128285E391E034
:1028D0009183808389E084838FEF858386E086837C
:1028E00085E0878384E0808783E0818782E0828738
:1028F0001386148615861686178661E080E10C948F
:102900004110CF93DF93CDB7DEB7CF58D1090FB6C3
:10291000F894DEBF0FBECDBF789484B5826084BDCD
:1029200084B5816084BD85B5826085BD85B58160D3
:1029300085BD80916E00816080936E001092810051
:10294000809181008260809381008091810081600C
:1029500080938100809180008160809380008091CD
:10296000B10084608093B1008091B0008160809359
:10297000B00080917A00846080937A0080917A0020
:10298000826080937A0080917A00816080937A00DF
:1029900080917A00806880937A001092C100E09163
:1029A0004806F091490682E08083E0914406F09168
:1029B00045061082E0914606F09147068FEC808331
:1029C00010925006E0914C06F0914D0686E080830F
:1029D000E0914A06F0914B06808180618083E0910E
:1029E0004A06F0914B06808188608083E0914A0618
:1029F000F0914B06808180688083E0914A06F091D7
:102A00004B0680818F7D80836DE571E088E396E0E1
:102A10000E94131180910607882321F081E097E03E
:102A20000E94820A1092E2061092E0061092DD06E1
:102A30001092DC068AE08093DB060E94CE028B01B6
:102A40008091DB060E94940061E08091DB060E9489
:102A50004902FFB6F89480910403811124C0E4EB8D
:102A6000F0E08491E8ECF0E09491E82FF0E0EE0FD4
:102A7000FF1FE056FF4FA591B491EC91E92321F49B
:102A800061E08AE00E9449028AE00E9494008CB5CD
:102A900080618CBD8CB580648CBD8DE00E949400FB
:102AA0008BE00E949400809104038F5F8093040365
:102AB000FFBE82E58093D5061092D6068091D5069A
:102AC0009091D6060E941303AAE0FA2E8FEF0E947F
:102AD000EE02FA94F110FACF87ED96E00E94160309
:102AE00020E030E0A90160E087ED96E00E942C0331
:102AF000F82E8093E10621E0821799F00E94CE0221
:102B0000601B710B613D774058F381E08093DC06D8
:102B100087ED96E00E94E3028AE891E00E940011AE
:102B2000FFCF2AEA31E040E050E068E087ED96E030
:102B30000E942C0382FF2AC0F092E2068091E206F6
:102B4000C12CD12CE12CE0E4FE2E823019F0C12CF6
:102B5000D12C760120E030E0A90167E387ED96E013
:102B60000E942C03A701960169E287ED96E00E947E
:102B70002C038093E1068823D1F00E94CE02601BD3
:102B8000710B613D774030F388E0C0CFF4E0FF2E59
:102B90000E94F5028093E106FA94F110F9CF8A3A87
:102BA00011F082E0B3CF82E08093E206C7CF80913C
:102BB000E2068230D1F420E030E0A9016AE387ED3B
:102BC00096E00E942C03882311F086E09FCF0E949C
:102BD000F502807C803C19F483E08093E2060E9439
:102BE000F5020E94F5020E94F50287ED96E00E9430
:102BF000E30280E58093D5061092D60681E00E941C
:102C00004B058823F9F081E097E00E9402088823B1
:102C100009F482CF86E791E00E94001161E0CE01C5
:102C200001960E94EC12CE0101960E94B300E09141
:102C30005107F0915207309761F48AEA91E00E94BF
:102C40000011CBC280E00E944B05882309F464CFB9
:102C5000DACF8581882389F38EE991E00E94001103
:102C600010E000E09AE2492E512C2CE1222E312C6A
:102C70003AE1632E712C48E1842E912C56E1E52E29
:102C8000F12C64E1C62ED12C72E1A72EB12C88E381
:102C900097E00E94950C892B09F49DC288E397E088
:102CA0000E94180EC257DF4F8883CE58D0408091C3
:102CB0001E0390911F038130910599F58FE093E0F9
:102CC0000E94852090933104809330044FE053E0BC
:102CD000FA0101900020E9F7AF014051534070E044
:102CE00060E08FE093E00E946E2282E090E090939B
:102CF0001F0380931E0310E000E0C257DF4FF881EE
:102D0000CE58D040FC3219F0FA3009F058C2809108
:102D10001E0390911F03019690931F0380931E033F
:102D2000B6CF83309105D1F48FE093E00E948520E7
:102D300090932F0480932E044FE053E0FA0101900A
:102D40000020E9F7AF014051534070E060E08FE0B0
:102D500093E00E946E2284E090E0C9CF8530910517
:102D6000D1F48FE093E00E94852090932D0480930E
:102D70002C044FE053E0FA0101900020E9F7AF0185
:102D80004051534070E060E08FE093E00E946E227B
:102D900086E090E0ACCF87309105D1F48FE093E0EE
:102DA0000E94852090932B0480932A044FE053E0E7
:102DB000FA0101900020E9F7AF014051534070E063
:102DC00060E08FE093E00E946E2288E090E08FCF79
:102DD00089309105D1F48FE093E00E948520909393
:102DE0002904809328044FE053E0FA010190002069
:102DF000E9F7AF014051534070E060E08FE093E0AD
:102E00000E946E228AE090E072CF8B309105D1F45F
:102E10008FE093E00E94852090930F0480930E042E
:102E20004FE053E0FA0101900020E9F7AF01405173
:102E3000534070E060E08FE093E00E946E228CE0EF
:102E400090E055CF8D309105C1F46FE073E080E1E3
:102E500094E00E9475224FE053E0FA0101900020B7
:102E6000E9F7AF014051534070E060E08FE093E03C
:102E70000E946E228EE090E03ACF8F309105D1F41F
:102E80008FE093E00E948520909325048093240492
:102E90004FE053E0FA0101900020E9F7AF01405103
:102EA000534070E060E08FE093E00E946E2280E18A
:102EB00090E01DCF81319105E1F48FE093E00E9415
:102EC000852090932704809326044FE053E0FA0175
:102ED00001900020E9F7AF014051534070E060E0FD
:102EE0008FE093E00E946E22B0921F03A0921E0317
:102EF00002CF83319105E1F48FE093E00E948520B9
:102F00009093DF038093DE034FE053E0FA010190DA
:102F10000020E9F7AF014051534070E060E08FE0DE
:102F200093E00E946E22D0921F03C0921E03E3CE54
:102F300085319105D1F46FE073E080EE93E00E945B
:102F400075224FE053E0FA0101900020E9F7AF014C
:102F50004051534070E060E08FE093E00E946E22A9
:102F6000F0921F03E0921E03C6CE87319105E1F473
:102F70008FE093E00E9485209093F5038093F40303
:102F80004FE053E0FA0101900020E9F7AF01405112
:102F9000534070E060E08FE093E00E946E229092D8
:102FA0001F0380921E03A7CE89319105E1F48FE0C3
:102FB00093E00E9485209093F7038093F6034FE0FF
:102FC00053E0FA0101900020E9F7AF01405153406E
:102FD00070E060E08FE093E00E946E2270921F0329
:102FE00060921E0388CE8B319105E1F48FE093E06F
:102FF0000E9485209093C5038093C4034FE053E063
:10300000FA0101900020E9F7AF014051534070E010
:1030100060E08FE093E00E946E2230921F032092C6
:103020001E0369CE8D319105E1F46FE073E086EC0B
:1030300093E00E9475224FE053E0FA0101900020D6
:10304000E9F7AF014051534070E060E08FE093E05A
:103050000E946E222EE130E030931F0320931E0366
:103060004ACE8F319105D1F48FE093E00E94852004
:103070009093DB038093DA034FE053E0FA01019071
:103080000020E9F7AF014051534070E060E08FE06D
:1030900093E00E946E2220E230E0DECF8132910583
:1030A000D1F48FE093E00E9485209093DD0380931C
:1030B000DC034FE053E0FA0101900020E9F7AF0193
:1030C0004051534070E060E08FE093E00E946E2238
:1030D00022E230E0C1CF83329105D1F48FE093E05A
:1030E0000E9485209093AB038093AA034FE053E0A6
:1030F000FA0101900020E9F7AF014051534070E020
:1031000060E08FE093E00E946E2224E230E0A4CFE2
:1031100085329105C1F46FE073E08CEA93E00E9480
:1031200075224FE053E0FA0101900020E9F7AF016A
:103130004051534070E060E08FE093E00E946E22C7
:1031400026E230E089CF87329105D1F48FE093E019
:103150000E9485209093C1038093C0034FE053E009
:10316000FA0101900020E9F7AF014051534070E0AF
:1031700060E08FE093E00E946E2228E230E06CCFA6
:10318000899709F0BACD8FE093E00E948520909353
:10319000C3038093C2034FE053E0FA010190002083
:1031A000E9F7AF014051534070E060E08FE093E0F9
:1031B0000E946E2250921F0340921E039CCDF80184
:1031C000E15FFC4FC257DF4F2881CE58D0402083AB
:1031D0000F5F1F4F5CCD0E948B0E8CEA93E00E9424
:1031E000001164E084E10E94411082E00E9494009A
:1031F00083E00E94940084E00E94940085E00E9495
:10320000940088E00E94940087E00E9494008091DE
:1032100030049091310490930E0380930D038091BC
:103220002E0490912F0490930C0380930B038091B4
:103230002C0490912D0490930A03809309038091AC
:103240002A0490912B0490930803809307038091A4
:10325000280490912904909306038093050380919C
:10326000C0039091C1039093250380932403809120
:10327000DA039091DB0390932303809322038091E0
:10328000F4039091F50390932103809320031E0192
:1032900036E8230E311C8EE00E942002C257DF4F19
:1032A00099838883CE58D0408FE00E9420027C0111
:1032B00080E10E9420022C0181E10E9420026C0129
:1032C00082E10E9420023C0183E10E9420025C0115
:1032D00080E00E9420028C0181E00E94DD1080903D
:1032E00007019090080181E08816910409F019C245
:1032F00060E087E00E9449029092060180920501F9
:103300008091340490913504C257DF4FE881F981F0
:10331000CE58D040E130F10509F064C1009709F0C2
:10332000A5C5F0933504E093340480913204909164
:1033300033040596909333048093320480913004D3
:1033400090913104019690933104809330048091E0
:1033500033048F93809132048F9389EC91E09F9393
:103360008F9381E090E08C0F9D1F9F938F930E941D
:103370008B226CED71E0C1010E94752280E00E94F9
:10338000DD10B10180E297E00E94131181E00E94FC
:10339000DD10BE016F5F7F4F80E297E00E94131146
:1033A0000F900F900F900F900F900F90809107014A
:1033B00090910801059709F03AC58091C3038F9356
:1033C0008091C2038F938091C1038F938091C0033A
:1033D0008F938CEA93E09F938F938091AB038F93AD
:1033E0008091AA038F938091DD038F938091DC03FA
:1033F0008F938091DB038F938091DA038F9386EC18
:1034000093E09F938F938091C5038F938091C40322
:103410008F938091F7038F938091F6038F93809120
:10342000F5038F938091F4038F9380EE93E09F9345
:103430008F938091DF038F938091DE038F93809130
:1034400027048F93809126048F93809125048F9376
:10345000809124048F9380E194E09F938F938091D7
:103460000F048F9380910E048F93809129048F9382
:10347000809128048F9380912B048F9380912A044C
:103480008F9380912D048F9380912C048F93809142
:103490002F048F9380912E048F93809131048F930A
:1034A000809130048F9386E992E09F938F9386E218
:1034B00093E09F938F930E948B220FB6F894DEBF08
:1034C0000FBECDBF67E1CE0182960E94EC12CE0105
:1034D00082960E94B300E0915107F0915207309715
:1034E00009F44EC48581882309F44AC4A0961FAE0E
:1034F0001EAEA09789E291E06E969FAF8EAF6E9759
:10350000A2961FAEA29723961FAE1EAE23972196BA
:103510009FAF8EAF219725961FAE2597D12CC12C3A
:10352000CE01845A9F4F7C0101E017E08D2D9C2D28
:10353000FC01EE5AFE4F20812F3209F40196DC0186
:10354000AE5ABE4FFE01E758FF4F30E020E0AF011A
:103550006D916F3249F0662339F001962F5F3F4F2E
:1035600061932C303105A1F7240F351FF90110822A
:10357000FC01EE5AFE4F20812F3209F40196D82E1D
:10358000C92E8E5A9E4FFC018081811103C41DA259
:103590001CA289E291E09BA38AA31FA222E0B801AA
:1035A000CE0182960E941511882399F0CE01829651
:1035B0000E949E0E882369F0CE0182960E943205F9
:1035C000009739F025EEFC0120831FA281E00E94C4
:1035D000BD04F7E001301F0709F4F0C3C8010E94E1
:1035E000820AECC3F1E0EF16F104D1F4009709F080
:1035F00042C4F0923504E0923404809132049091F8
:1036000033040A96909333048093320480912E04FD
:1036100090912F04019690932F0480932E0497CEBF
:1036200021E042165104D1F4009709F024C45092CD
:1036300035044092340480913204909133044496CE
:10364000909333048093320480912C0490912D0444
:10365000019690932D0480932C0479CE31E0C3160B
:10366000D104D1F4009709F00BC4D0923504C09274
:1036700034048091320490913304C29690933304C1
:103680008093320480912A0490912B0401969093A8
:103690002B0480932A045BCEE1E06E167104D9F40A
:1036A000009709F0EDC37092350460923404809164
:1036B0003204909133048C599F4F9093330480933C
:1036C0003204809128049091290401969093290452
:1036D000809328043CCEF1E0AF16B10481F400974A
:1036E00009F0D3C3B0923504A092340482E090E094
:1036F00090930801809307010E94391028CE013071
:10370000110509F0C2C3009709F0BFC31093350437
:10371000009334040E94460E109233041092320437
:10372000EBCF92E08916910409F04DC180913404E9
:1037300090913504C257DF4FE881F981CE58D040CF
:10374000E130F10569F5009709F0C2C380912404C6
:1037500090912504019790932504809324048091EF
:103760000C0490910D042091260430912704820FBF
:10377000931F90930D0480930C04F0933504E09311
:10378000340480E194E09F938F9384EE91E09F93C3
:103790008F9388EF93E09F938F930E948B2200CEAC
:1037A000F1E0EF16F10429F5009709F096C3809136
:1037B000F4039091F50301979093F5038093F4033C
:1037C00080910C0490910D042091F6033091F70341
:1037D000820F931F90930D0480930C04F092350494
:1037E000E092340480EE93E09F938F938EEE91E00D
:1037F000CECF21E04216510409F5009709F072C3BB
:103800008091DA039091DB0301979093DB0380931F
:10381000DA0380910C0490910D042091DC03309127
:10382000DD03820F931F90930D0480930C0450923C
:1038300035044092340486EC93E0D6CF31E0C316D1
:10384000D10409F5009709F052C38091C00390910B
:10385000C10301979093C1038093C00380910C042E
:1038600090910D042091C2033091C303820F931FE6
:1038700090930D0480930C04D0923504C0923404CC
:103880008CEA93E0B1CFE1E06E16710461F5009728
:1038900009F032C383E090E0909308018093070120
:1038A000709235046092340448EF53E0FA010190BD
:1038B0000020E9F7AF01495F534070E060E088EF16
:1038C00093E00E946E22F10101900020E9F7319708
:1038D000AF014219530970E060E0C1010E946E22FD
:1038E0000E94391063CDF1E0AF16B10481F5009765
:1038F00009F007C3B0923504A092340410920D046D
:1039000010920C040E943910809124039091250399
:103910009093C1038093C00380912203909123036D
:103920009093DB038093DA032091200330912103ED
:103930003093F5032093F40390932504809324049B
:1039400061E571E088EF93E00E9475222FCD013090
:10395000110509F0D6C2009709F0D3C20E943910B0
:1039600060E087E00E944902109233041092320412
:1039700010930801009307010E94460E109335042E
:103980000093340448EF53E0FA0101900020E9F776
:10399000AF01495F534070E060E088EF93E00E9420
:1039A0006E22F10101900020E9F73197AF01421931
:1039B000530970E060E0C1010E946E2210920D0474
:1039C00010920C04F3CCF3E08F16910409F0BAC006
:1039D00080910501909106010197E1F50E94CE02C8
:1039E000611571058105910511F00E947C200E94EE
:1039F0002D2024E030E040E050E00E94AB206B013D
:103A00007C01DC01CB010196A11DB11D9093A9039E
:103A10008093A8031092060110920501B7FF4FC0D2
:103A20006DE288E396E00E948A0119A2C094D094C6
:103A3000E094F09420E3C20EC8A2BE01605E7F4F06
:103A400088E396E00E94F1106FE471E088E396E06D
:103A50000E94F1108091A8039091A903029709F0A8
:103A600060C00115110579F580E00E94DD1069E163
:103A700072E080E297E00E94131181E00E94DD1065
:103A80006BE272E080E297E00E94131182E00E94F4
:103A9000DD106FE372E080E297E00E94131183E093
:103AA0000E94DD106FE472E080E297E00E94131143
:103AB00061E087E00E9449020E94460E77CC19A27D
:103AC000805D88A3BACF0130110509F06FCC0E9448
:103AD000391060E087E00E9449021092330410928E
:103AE000320410920D0410920C04109308010093FC
:103AF00007011093060100930501109235041092FE
:103B0000340448EF53E0FA0101900020E9F7AF01D7
:103B1000495F534070E060E088EF93E00E946E22BE
:103B200045CC61E088E00E94490281E090E09093FA
:103B300006018093050184E090E090930801809352
:103B4000070134CCF4E08F16910409F02FCC60907B
:103B500032047090330480910C0490910D04681627
:103B600079060CF4F2C0681A790A809028049090C3
:103B7000290400912C0410912D04E0903004F09061
:103B80003104C0902E04D0902F04E0912A04F091CB
:103B90002B04930184E6482E512C2115310509F0A0
:103BA00047C0D0922F04C0922E04F0923104E092CC
:103BB000300410932D0400932C04F0932B04E09315
:103BC0002A04909229048092280480910401882379
:103BD00009F4AEC07F926F9284E692E09F938F9338
:103BE00084E993E09F938F930E948B220F900F9014
:103BF0000F900F900F900F9080E00E94DD1064E90D
:103C000073E080E297E00E94131168EB7BE080E0B4
:103C100090E00E949C020E94391085E090E0909311
:103C200008018093070160E088E00E944902BECB52
:103C3000243631058CF0C9016CE97FEF0E940E211A
:103C40005B01A80CB91CB7FC0AC0C901B2010E94F3
:103C50000E219C014501A1CF2233310594F0C90109
:103C60006EEC7FEF0E940E215B01AE0EBF1EB7FC13
:103C70000BC0C90162E370E00E940E219C01F501B6
:103C80008CCF2431310594F0C9016CEE7FEF0E9496
:103C90000E215B01A00EB11EB7FC0BC0C90164E18F
:103CA00070E00E940E219C01850177CF2A303105FA
:103CB00094F0C90166EF7FEF0E940E215B01AC0C0E
:103CC000BD1CB7FC0CC0C9016AE070E00E940E2167
:103CD0009C01650162CF253031050CF45ECFC9012E
:103CE0006BEF7FEF0E940E215B01AE0CBF1CB7FC97
:103CF00008C0C90165E070E00E940E219C017501B9
:103D00004CCFD0922F04C0922E04F0923104E09256
:103D1000300410932D0400932C04F0932B04E093B3
:103D20002A049092290480922804109204014DCF15
:103D300066E772E084E993E00E9475220E94460ED5
:103D4000109233041092320457CF0E94391066E863
:103D500072E084E993E00E9475220E94460E109260
:103D600033041092320460ED77E080E090E00E942E
:103D70009C0281E090E090930801809307013CCF82
:103D800083EE92E00E9400111BC083EE92E00E943D
:103D9000001130C0F7018581811162C021E0B801B6
:103DA000C7010E941511B82E27E00130120709F44F
:103DB0004BC0C8010E94820AB1104CC00E948B0EF9
:103DC00067E1CE0182960E94EC12CE0182960E949B
:103DD000B300E0915107F09152073097B1F285811D
:103DE000882399F266E273E088E397E00E9413115A
:103DF0000E948B0E109233041092320410920D0424
:103E000010920C0448EF53E0FA0101900020E9F70A
:103E1000AF01495F534070E060E088EF93E00E949B
:103E20006E2281E090E0909308018093070180E08A
:103E300090E0892B09F42FCA0E945401882309F4C9
:103E40002ACA0E94000023CA882309F4B7CF8E0132
:103E5000015C1F4F902F812F8701E92EF82E66CB32
:103E600027E00130120709F4A9CFB8CBE1E0EE1644
:103E7000F10409F0D5CBF1E0CF16D10409F00CCC58
:103E800031E0A316B10409F03ACC019709F05FCAFA
:103E9000C257DF4F28813981CE58D040232B09F0FB
:103EA00056CAEF2809F053CA452809F050CACD2850
:103EB00009F04DCA672809F04ACAAB2809F047CA79
:103EC000012B09F044CA10923504109234043FCA01
:103ED00021E0E216F10409F08CCC31E043165104E4
:103EE00009F0ACCCE1E0CE16D10409F0CCCCF1E085
:103EF0006F16710409F0F7CC21E0A216B10409F0A5
:103F000026CD019709F093CFC257DF4F2881398121
:103F1000CE58D040232B09F08ACFEF2809F087CF65
:103F2000452809F084CFCD2809F081CF672809F012
:103F30007ECFAB2809F07BCF109235041092340469
:103F400080910D048F9380910C048F938BEF91E0FF
:103F50009F938F9381E090E08C0F9D1F9F938F9391
:103F60000E948B22BE016F5F7F4F80E297E00E942C
:103F7000131180E00E94DD10809108018F938091E1
:103F800007018F9380E192E09F938F933F922F924E
:103F90000E948B22B10180E297E00E94131182E01F
:103FA0000E94DD1068EF73E080E297E00E94131139
:103FB00081E00E94DD100FB6F894DEBF0FBECDBFCA
:103FC000F5C98F929F92AF92BF92CF92DF92EF92FC
:103FD000FF92CF93DF93EC01688179818A819B8185
:103FE000611571058105910521F464E279ED8BE598
:103FF00097E02DE133EF41E050E00E94AB20490112
:104000005A019B01AC01A7EAB1E40E94CA206B01EE
:104010007C01ACEEB4EFA50194010E94D820C60E3D
:10402000D71EE81EF91EF7FE06C081E0C81AD108A7
:10403000E10880E8F80AC882D982EA82FB82C701D7
:10404000B6019F77DF91CF91FF90EF90DF90CF90F7
:10405000BF90AF909F908F9008958F929F92AF9254
:10406000BF92CF92DF92EF92FF926091090170911F
:104070000A0180910B0190910C0161157105810578
:10408000910521F464E279ED8BE597E02DE133EFC2
:1040900041E050E00E94AB2049015A019B01AC0174
:1040A000A7EAB1E40E94CA206B017C01ACEEB4EF38
:1040B000A50194010E94D820C60ED71EE81EF91E45
:1040C000F7FE06C081E0C81AD108E10880E8F80AC6
:1040D000C0920901D0920A01E0920B01F0920C010A
:1040E000C701B6019F77FF90EF90DF90CF90BF9010
:1040F000AF909F908F9008956093090170930A018B
:1041000080930B0190930C010895FC018827992757
:10411000E89421912032E9F3293010F02E30C8F3D1
:104120002B3241F02D3239F4689404C00E94A32050
:10413000820F911D219120532A30C0F31EF49095D7
:1041400081959F4F08957AE0979F902D879F802DAE
:10415000910D11240895052E97FB1EF400940E94E2
:10416000C22057FD07D00E94DD2007FC03D04EF48B
:104170000C94C22050954095309521953F4F4F4F5C
:104180005F4F089590958095709561957F4F8F4F03
:104190009F4F08950E94FF20A59F900DB49F900D02
:1041A000A49F800D911D11240895B7FF0C94CA207F
:1041B0000E94CA20821B930B0895A1E21A2EAA1B0B
:1041C000BB1BFD010DC0AA1FBB1FEE1FFF1FA217C7
:1041D000B307E407F50720F0A21BB30BE40BF50BC4
:1041E000661F771F881F991F1A9469F7609570954D
:1041F000809590959B01AC01BD01CF010895A29FD0
:10420000B001B39FC001A39F700D811D1124911DAA
:10421000B29F700D811D1124911D089597FB072EEB
:1042200016F4009407D077FD09D00E94222107FCE4
:1042300005D03EF4909581959F4F089570956195B6
:104240007F4F0895AA1BBB1B51E107C0AA1FBB1FCC
:10425000A617B70710F0A61BB70B881F991F5A9512
:10426000A9F780959095BC01CD010895EE0FFF1F31
:104270000590F491E02D09940F931F93CF93DF9352
:104280008230910510F482E090E0E0915507F091C2
:10429000560730E020E0B0E0A0E0309799F4211517
:1042A000310509F44AC0281B390B24303105D8F5F3
:1042B0008A819B816115710589F1FB01938382835A
:1042C000FE0111C0408151810281138148175907B5
:1042D000E0F04817590799F4109761F012960C9383
:1042E000129713961C933296CF01DF91CF911F91B5
:1042F0000F9108950093550710935607F4CF211599
:10430000310551F04217530738F0A901DB019A013A
:10431000BD01DF01F801C1CFEF01F9CF909356073E
:1043200080935507CDCFFE01E20FF31F8193919348
:104330002250310939832883D7CF209153073091F8
:104340005407232B41F420910F0130911001309339
:1043500054072093530720910D0130910E01211530
:10436000310541F42DB73EB7409111015091120132
:10437000241B350BE0915307F0915407E217F30724
:10438000A0F42E1B3F0B2817390778F0AC014E5FC5
:104390005F4F2417350748F04E0F5F1F50935407A7
:1043A00040935307819391939FCFF0E0E0E09CCF3F
:1043B000CF93DF930097E9F0FC01329713821282CA
:1043C000A0915507B0915607ED0130E020E010971D
:1043D000A1F420813181820F931F209153073091E6
:1043E00054072817390709F061C0F0935407E09388
:1043F0005307DF91CF910895EA01CE17DF07E8F563
:104400004A815B819E0141155105B1F7E901FB83AA
:10441000EA8349915991C40FD51FEC17FD0761F448
:10442000808191810296840F951FE9019983888389
:10443000828193819B838A83F0E0E0E012968D91E4
:104440009C9113970097B9F52D913C911197CD014F
:104450000296820F931F209153073091540728171B
:10446000390739F6309751F51092560710925507D3
:10447000B0935407A0935307BCCFD383C28340812A
:104480005181840F951FC817D90761F44E5F5F4FA4
:1044900088819981480F591F518340838A819B816C
:1044A000938382832115310509F0B0CFF09356072D
:1044B000E09355079ECFFD01DC01C0CF138212822D
:1044C000D7CFFB01DC0104C08D910190801921F44C
:1044D00041505040C8F7881B990B0895DC0101C07A
:1044E0006D9341505040E0F70895FB01DC010190CD
:1044F0000D920020E1F70895FB01DC01415050408E
:1045000048F001900D920020C9F701C01D92415062
:104510005040E0F70895AEE0B0E0E1E9F2E20C943B
:104520003A250D891E8986E08C831A8309838FEFD3
:104530009FE79E838D83AE01475E5F4F6F89788DC5
:10454000CE0101960E94AE222F813885020F131FE3
:10455000F80110822E96E4E00C945625ABE0B0E012
:10456000E4EBF2E20C942C257C013B018A01FC0176
:1045700017821682838181FFC8C1CE0101965C013A
:10458000F7019381F30193FD859193FF81913F01A1
:10459000882309F453C1853239F493FD859193FF43
:1045A00081913F01853229F4B70190E00E949E2459
:1045B000E7CF912C212C312CFFE1F31538F08B3211
:1045C00011F190F4803209F1833229F137FC3CC0BB
:1045D00020ED280F2A3050F536FE20C08AE0989E44
:1045E000200D1124922E06C08D3291F0803371F788
:1045F000689430F8F30193FD859193FF81913F0119
:104600008111DACF21C0689431F8689432F8F2CF82
:10461000689433F8EFCF689434F8ECCFEAE02E9E3C
:10462000200D1124222E689435F8E4CF8E3229F41F
:1046300036FC04C1689436F8DDCF8C3619F46894E2
:1046400037F8D8CF8836B1F2982F9F7D95549330A4
:10465000E0F08336A1F18337C1F1833509F063C0FF
:104660002801F2E04F0E511CF801C080D180692D65
:1046700070E036FC02C06FEF7FEFC6010E94882415
:104680004C01689437F882010AC00C5F1F4FFFE3AA
:10469000F98388248394912C6501E89437F833FEDC
:1046A0002DC0522C8114910471F5552009F468CF66
:1046B000B70180E290E00E949E245A94F6CFF80160
:1046C000808189830E5F1F4FE4CF2801F2E04F0EF7
:1046D000511CF801C080D180692D70E036FC02C009
:1046E0006FEF7FEFC6010E9493244C018201D5CF6A
:1046F000B70180E290E00E949E242A9428141904B5
:1047000009F0B0F7CECFF60137FC859137FE8191E5
:104710006F01B70190E00E949E2451105A94F1E07D
:104720008F1A9108BFCF843619F0893609F077C007
:10473000F80137FE6BC060817181828193810C5FCB
:104740001F4FF32DFF763F2E97FF09C09095809560
:10475000709561957F4F8F4F9F4F689437F82AE08F
:1047600030E0A5010E94CE24C82ECA188C2C432C00
:1047700036FE0CC0E89440F8C91440F434FE05C07D
:1047800032FC03C0F32DFE7E4F2E892C44FE95C0D3
:10479000FE01EC0DF11D8081803309F087C0242DCE
:1047A000297E422E842D8870582E43FC95C040FEF1
:1047B0008FC09C2C821418F42C0C922C981844FE58
:1047C00091C0B70180E390E00E949E2442FE09C0A0
:1047D00088E790E041FE02C088E590E0B7010E94C2
:1047E0009E24C91408F48AC0CA94D12C9FEFC91A18
:1047F000D90ACA0CDB1CF60182916F01B70190E067
:104800000E949E24AC14BD04B1F74FCF608171812A
:10481000072E000C880B990B0E5F1F4F92CFD32CE5
:10482000E894D4F82AE030E0853739F1232D297F48
:10483000D22E8F3601F148F48835A9F0F701868130
:1048400097812B96E2E10C944825803749F0883710
:10485000A9F7D4FE02C06894D2F820E130E00DC080
:104860006894D4F8F6CF34FE03C0822F8660D82E29
:1048700020E132E002C028E030E0F801D7FE0FC0AE
:1048800060817181828193810C5F1F4FA5010E941D
:10489000CE24C82ECA183D2CE89437F867CF608123
:1048A000718190E080E00E5F1F4FF0CF42FC02C0AC
:1048B000839478CF8394839475CF842D867809F47C
:1048C00071CFF6CFB70180E290E00E949E248394DE
:1048D0008214C0F3512C73CF522C5818821408F450
:1048E0006ECFF8CF842D867809F47BCF8BE241FE22
:1048F00080E247FC8DE2B70190E071CFB70180E321
:1049000090E00E949E249A946CCF8FEF9FEF99CFF6
:10491000FC010590615070400110D8F7809590958A
:104920008E0F9F1F0895FC0161507040019001108F
:10493000D8F7809590958E0F9F1F08950F931F9322
:10494000CF93DF93182F092FEB018B8181FD09C0D5
:104950001FEF0FEF812F902FDF91CF911F910F91BC
:10496000089582FF14C02E813F818C819D8128177C
:1049700039073CF4E881F981CF0101969983888356
:1049800010838E819F8101969F838E83E3CFE8857C
:10499000F985812F0995892BA1F3DACFFA01AA278E
:1049A000283051F1203181F1E8946F936E7F6E5F72
:1049B0007F4F8F4F9F4FAF4FB1E03ED0B4E03CD020
:1049C000670F781F891F9A1FA11D680F791F8A1F03
:1049D000911DA11D6A0F711D811D911DA11D20D06A
:1049E00009F468943F912AE0269F11243019305D24
:1049F0003193DEF6CF010895462F4770405D419315
:104A0000B3E00FD0C9F7F6CF462F4F70405D4A3361
:104A100018F0495D31FD4052419302D0A9F7EACF29
:104A2000B4E0A6959795879577956795BA95C9F758
:104A300000976105710508959B01AC010A2E06944B
:104A40005795479537952795BA95C9F7620F731F04
:104A5000841F951FA01D08952F923F924F925F9241
:104A60006F927F928F929F92AF92BF92CF92DF927E
:104A7000EF92FF920F931F93CF93DF93CDB7DEB7E3
:104A8000CA1BDB0B0FB6F894DEBF0FBECDBF099477
:104A90002A88398848885F846E847D848C849B84CE
:104AA000AA84B984C884DF80EE80FD800C811B81DC
:104AB000AA81B981CE0FD11D0FB6F894DEBF0FBE0B
:0A4AC000CDBFED010895F894FFCF7B
:104ACA00FFFFFFFF01010001000100000000005785
:104ADA00078000000000008A01EA001701D7014898
:104AEA000126013A01000000002A0CEA00240A8B80
:104AFA000C00000000EB10EA00DA028B0C00000048
:104B0A0000E20CC50CB50C8C0C950C180E220E0D7F
:104B1A000A0068697A6D65742E74787400534420AB
:104B2A0063617264204261736C6174696C69796F44
:104B3A0072202E2E2E004261736C61746D612062A8
:104B4A0069746972696C64692E004261736C61747C
:104B5A006D612062617361726973697A21006869A3
:104B6A007A6D65742E7478743A0068697A6D657422
:104B7A002E74787420616361726B656E206861744B
:104B8A0061206F6C7573747500256420544C207015
:104B9A0061726120617474696E697A004173616D32
:104BAA006120310025732069736C656D6900257376
:104BBA002069736C656D692020200049736C656DEE
:104BCA00207475746172696E697A3A2025642000CE
:104BDA004173616D612025640050617261205369DF
:104BEA006B69737469212020202000506172612052
:104BFA0049616465736920596170696C646900521E
:104C0A00657365746C656D656B204963696E0052E6
:104C1A0065736574204275746F6E756E61204261AA
:104C2A0073696E002564203D20506172612075739E
:104C3A0074756E757A004B6173616461207061727C
:104C4A006120796F6B00596574657273697A2062A5
:104C5A00616B6979650025642C25642C25642C25F3
:104C6A00642C25640A25642C25732C25642C256460
:104C7A0020544C0A25642C25732C25642C25642089
:104C8A00544C0A25642C25732C25642C2564205445
:104C9A004C0A25642C25732C25642C256420544C3D
:104CAA000A2000446F737961206163696C616D61E8
:044CBA006469000029
:00000001FF
